:020000040800F2
:100000003820002085100008DB0F0008DD0F0008F5
:10001000DF0F0008E10F0008E30F000800000000F8
:10002000000000000000000000000000E50F0008D4
:10003000E70F000800000000E90F0008EB0F0008C0
:1000400095100008991000089D100008A1100008E4
:10005000A5100008A9100008AD100008B110000894
:10006000B5100008B9100008BD100008C110000844
:10007000C5100008C9100008CD100008D1100008F4
:10008000D5100008D91000081B050008DD10000875
:10009000E1100008E5100008E9100008ED10000864
:1000A000F1100008F5100008F9100008FD10000814
:1000B0004305000801110008051100080911000896
:1000C0000D11000811110008151100081911000880
:1000D0001D11000821110008251100082911000830
:1000E0002D110008311100083511000839110008E0
:1000F0003D11000841110008451100084911000890
:100100004D1100085111000855110008591100083F
:100110005D110008611100086511000869110008EF
:100120006D1100087111000875110008791100089F
:100130007D1100088111000885110008891100084F
:100140008D110008911100089511000899110008FF
:100150009D110008A1110008A5110008A9110008AF
:10016000AD110008B1110008B5110008B91100085F
:10017000BD110008C1110008C5110008C91100080F
:10018000CD110008D111000801B402E00098401E12
:10019000009000980028F9D101B07047E0B5012126
:1001A000012000F00FFB01208DF8040020200090BA
:1001B00000208DF8060000208DF807006946DFF862
:1001C0000C0500F039FB07BDE0B50121042000F06B
:1001D000F9FA01208DF804004FF4FF700090002020
:1001E0008DF8060000208DF807006946DFF8E0046E
:1001F00000F022FB0121022000F0E4FA01208DF83A
:1002000004000F20009000208DF8060000208DF8DB
:1002100007006946DFF8BC0400F00EFB07BD1CB503
:100220000121022000F0CEFA02208DF804004FF4E4
:10023000E070009000208DF8060000208DF8070087
:10024000DFF890446946200000F0F6FA0222062109
:10025000200000F04FFB02220721200000F04AFBA3
:1002600002220821200000F045FB13BD2DE9F047D4
:1002700082460C0015001E00DFF858740821380073
:1002800000F035FBDFF84884DFF84C9419F80610CD
:10029000490089B2404600F02AFB4FF47A70FFF71C
:1002A00073FF0421380000F022FB19F80510490003
:1002B00089B2404600F01BFB4FF47A70FFF764FFF1
:1002C0000221380000F013FB19F80410490089B22C
:1002D000404600F00CFB4FF47A70FFF755FF012108
:1002E000380000F004FB19F80A10490089B24046B2
:1002F00000F0FDFA4FF47A70FFF746FFBDE8F08793
:1003000038B50500DFF8D4438021200000F096FBCB
:100310000028F7D0EDB2290089B2200000F086FB5A
:1003200031BD10B5DFF8B4432021200000F086FB7A
:100330000028F7D0200000F07DFBC0B210BD1FB533
:1003400004000121012000F04BFA43F67F60ADF874
:100350000400641E02940020ADF8060001A95FF0BD
:10036000804000F095FB01215FF0804000F0C6FC6A
:10037000012201215FF0804000F0A2FC01215FF02A
:10038000804000F0BCFB4FF4C06000F0BBFC1C20C0
:100390008DF8000000208DF8010001208DF802008A
:1003A00001208DF80300684600F0B1FC1FBD1FB5A9
:1003B00004000121042000F013FA0020ADF8000031
:1003C000641E01940020ADF802000020ADF8080082
:1003D000C34C6946200000F05BFB0121200000F0C7
:1003E0008EFB1FBD10B586B00121012000F0EAF997
:1003F00002208DF8040000208DF8060001208DF801
:1004000007000C200090B14C6946200000F014FA5F
:1004100007220221200000F06DFA072203212000AC
:1004200000F068FA01215FF4003000F0D9F95FF4C0
:10043000E13002900020ADF80C000020ADF80E0075
:100440000020ADF810000C20ADF81200A34C02A95A
:10045000200000F079FA0121200000F0D9FA06B05E
:1004600010BD18B58DB00121042000F0ABF90120BA
:10047000019003208DF8080000208DF80B0001A9E1
:10048000934800F0D9F94FF4C06000F03BFC122013
:100490008DF8000001208DF8010002208DF8020087
:1004A00001208DF80300684600F031FC01214FF473
:1004B000807000F0A3F90020099000200B905FF4F9
:1004C00040300A9009A800F082FC00200390002030
:1004D0008DF8100001208DF81100002005900020FB
:1004E00006900020079001208DF820007D4C03A984
:1004F000200000F047FC002301220A21200000F028
:1005000082FC012240F20521200000F0F1FC0121D3
:10051000200000F06BFC0EB010BD38B5714D40F2FC
:1005200005242100280000F0F4FC002808D0210058
:10053000280000F006FD280000F0CFFC6A49088082
:1005400031BDF8B501215FF0804000F0C5FB002807
:100550006ED0664C23780A2022780A2192FBF1F2B1
:100560000A252678642196FBF1F10A2693FBF0F721
:1005700000FB173392FBF5F005FB102291FBF6F020
:1005800006FB10110020FFF771FE20783D280ADAE3
:1005900046F2A81156480160002056490860002024
:1005A000554908601BE020783D3814280AD2002104
:1005B0004F48016046F2A8114E48016000214E48A4
:1005C00001600CE02078512809DB002148480160D7
:1005D00000214848016046F2A81147480160474C95
:1005E000474D4148028892B2120A21886A542188F4
:1005F000491C21800188208829542088401C2080A3
:10060000208814280FD1A520FFF77AFE002603E0EA
:10061000A85DFFF775FE761C142EF9DB5A20FFF754
:100620006FFE0020208001215FF0804000F066FB1B
:10063000F1BD18B585B06020ADF800000120ADF81F
:1006400002000020ADF80C0000200290244C694606
:10065000200000F062FA6946200000F09CFA69462A
:10066000200000F0DCFA06B010BD10B5FFF796FDD3
:10067000FFF7AAFDFFF7D3FD0A20FFF760FE4FF456
:100680007A50FFF794FEFFF7D4FFFFF7ABFEFFF7BA
:10069000E8FE144800F01CFC144CFFF742FE2070EA
:1006A00020780028F8D0094C2021200000F018F90B
:1006B0004FF47A70FFF768FD2021200000F013F955
:1006C0004FF47A70FFF760FDE6E70000000002409B
:1006D00000080240000402400000002000440040E6
:1006E00000080040002001403000002034000020BD
:1006F00034080040380800403C0800403200002028
:100700001C00002010B40021002100210221002142
:100710000221DFF80421116811F00C01002904D036
:10072000042906D0082908D02DE0DFF8F410016074
:100730002CE0DFF8F010016028E0DFF8E030196805
:10074000C1F380511C6814F03F04002909D0DFF880
:10075000D410B1FBF4F41968C1F3881101FB04F162
:1007600008E0DFF8BC10B1FBF4F41968C1F388119C
:1007700001FB04F11B68C3F301435B1C5B00B1FB8D
:10078000F3F1016002E0DFF898100160136813F0E4
:10079000F0031B09DFF89010CC5C0368E340436072
:1007A000136813F4E0539B0ACC5C4368E340836016
:1007B000126812F46042520B895C4268CA40C260FF
:1007C00010BC7047C9B2002904D0184A1168084308
:1007D000106004E0154A116831EA000010607047AB
:1007E000C9B2002904D0124A11680843106004E01D
:1007F0000F4A116831EA000010607047C9B2002941
:1008000004D00C4A11680843106004E0094A1168DA
:1008100031EA000010607047083802400438024096
:100820000024F40040787D010C00002030380240A4
:100830004038024044380240F0B400220022002236
:10084000002349E0012515FA03F40A682240A24278
:1008500041D1032402681E00F6B2760014FA06F6AF
:10086000B243026006680F791A00D2B25200974074
:100870003E4306600A79012A02D00A79022A1AD177
:1008800082681E00F6B2760014FA06F6B243826061
:1008900086684F791A00D2B2520097403E43866074
:1008A00042689D4032EA0505456045688A799A406C
:1008B00092B215434560C5681A00D2B25200944006
:1008C00035EA0404C460C468CD791A00D2B252007B
:1008D00095402C43C4605B1C102BB3D3F0BC704715
:1008E00089B28161704789B209048161704789B218
:1008F0004161704770B400230023D2B211F00703A6
:10090000DBB29B009A400B009BB2DB1000EB830430
:100910000B009BB2DB1000EB83031D6A0F2611F066
:100920000703DBB29B009E40B54325620B009BB2E0
:10093000DB1000EB83031B6A1A4389B2C91000EB7A
:100940008100026270BC704738B584B004000D00AD
:100950000020002000200020A8890028218A31F4EE
:100960004051E88801432182A18928480140A88894
:1009700001432889014368890143A181A18A31F497
:100980004071A8890143A1826846FFF7BBFE1D485C
:10099000844202D01C48844201D1039900E00299AC
:1009A000A089000406D51920414328684000B1FB06
:1009B000F0F205E01920414328688000B1FBF0F215
:1009C0006420B2FBF0F109010B001B097FF063000A
:1009D00000FB0322A089000408D5D0003230642235
:1009E000B0FBF2F010F00700014307E012013232D1
:1009F0006420B2FBF0F010F00F000143218105B03C
:100A000030BD00000010014000140140F3E9FFFF79
:100A1000C9B2002904D0818951F40051818104E0D8
:100A200082894DF6FF710A4082817047C905C90D60
:100A3000818070478088C005C00D704700220A0081
:100A400092B2B2F5007F0088084201D0012000E098
:100A50000020C0B2704730B5016884684218416810
:100A600002EB5103C90703D54C4401E0491C08D1EE
:100A70009A4218BF12F9011B01D10C3030BD12F897
:100A8000015B002904F8015BF0D4491EF7D5EFE7BC
:100A900010B400220488834B98420ED0874A9042BB
:100AA0000BD0B0F1804F08D07F4A904205D07F4AEA
:100AB000904202D07E4A904205D14FF68F72144088
:100AC00022004C8814437B4A904208D07A4A9042D4
:100AD00005D04FF6FF42144022000C8914430480D5
:100AE0004A68C2620A880285984202D0734A9042DC
:100AF00001D1897A01860121818210BC7047C9B277
:100B0000002904D0018851F00101018004E002882D
:100B10004FF6FE710A400280704730B40022002276
:100B20000022038C4FF6FE7213400384038C8488EA
:100B3000058B4FF68F7215404FF6FC7215400A88F0
:100B400015434FF6FD7213408A8913434A881343B5
:100B5000544A904202D0594A904215D14FF6F7724A
:100B60001340CA8913434FF6FB7213401A008B8857
:100B700013434FF6FF6214404FF6FF5214400A8AA7
:100B8000144322004C8A144384800583896841639E
:100B9000038430BC704730B4002200220022038C52
:100BA0004FF6EF7213400384038C8588048B48F65C
:100BB000FF7214404FF6FF4214400A8854EA0224A0
:100BC0004FF6DF7213408A8953EA02134A8853EAC8
:100BD0000213344A904202D0384A904218D14FF65C
:100BE0007F721340CA8953EA02131A004FF6BF738B
:100BF00013408A8853EA02134FF6FF3215404FF232
:100C0000FF7215400A8A55EA82054A8A55EA82052A
:100C10008580048389688163038430BC704730B465
:100C2000002200220022038C4FF6FF62134003844F
:100C3000038C8588848B4FF68F7214404FF6FC72BC
:100C400014400A8814434FF6FF5213408A8953EA2E
:100C500002234A8853EA0223124A904202D0174ADA
:100C6000904218D14FF2FF721340CA8953EA02230F
:100C70001A004FF6FF3313408A8853EA02234EF6D8
:100C8000FF7215404DF6FF7215400A8A55EA0215AB
:100C90004A8A55EA0215858084838968C163038482
:100CA00030BC7047000001400004004000080040D4
:100CB000000C0040001000400014004000040140FF
:100CC000D2B2002A03D082891143818103E0828954
:100CD00032EA010181817047002200220022028A4B
:100CE0000A408089014092B2002A04D089B20029CA
:100CF00001D0012000E00020C0B2704789B2C94392
:100D0000018270471A4908431A4908607047002158
:100D100000210F22C17800291ED01649096811F45C
:100D2000E061D1F5E061090AD1F10403D2B20A41D0
:100D30004178994083781A40114309010E4B02789B
:100D400099540121027812F01F0291400B4A007859
:100D5000401142F8201009E00121027812F01F0230
:100D60009140074A0078401142F820107047000077
:100D70000000FA050CED00E000E400E000E100E016
:100D800080E100E010B4002200234468544A14407B
:100D90000A7954EA02240A68144344608468514A78
:100DA00014400A691443CA6814438A6814434A7990
:100DB00054EA42048460C26A32F47002097D491E1A
:100DC0000B43DBB252EA0352C26210BC70470021EF
:100DD000454A136845490B4001680B4341680B4382
:100DE00081680B43C068034313607047C9B2002990
:100DF00004D0816851F00101816003E081684908F5
:100E0000490081607047F0B4002400240C00E4B273
:100E10000A2C12DBC5680726B1F10A04032714FB6C
:100E200007F4A640B543DBB2B1F10A06032416FB72
:100E300004F4A3402B43C3600DE005690726032497
:100E400011FB04F4A640B543DBB2032411FB04F408
:100E5000A3402B4303611300DBB2072B10DA446B72
:100E60001F25561E052316FB03F39D40AC43C9B254
:100E7000521E052312FB03F291402143416325E0FA
:100E80001300DBB20D2B10DA046B1F25D61F0523D0
:100E900016FB03F39D40AC43C9B2D31F052213FBDD
:100EA00002F291402143016310E0C46A1F25B2F1B0
:100EB0000D06052316FB03F39D40AC43C9B20D3A62
:100EC000052312FB03F291402143C162F0BC70473D
:100ED000816851F0804181607047C06C80B270477A
:100EE000FFFEFFFCFDF7FFC004230140E030FCFFE4
:100EF0000023C9B2012313FA01F1D2B2002A03D0B0
:100F000042681143416003E0426832EA01014160F6
:100F1000704710B40022002200220A0092B2120A86
:100F200092B24468012313FA01F121400068104293
:100F300003D0002901D0012000E00020C0B210BC85
:100F40007047002289B2090AC9B2C94301607047DB
:100F50000F49086850F4700008600E49086850F0A6
:100F60000100086000220C4802600A680B48024039
:100F70000A600B4A0B480260086830F48020086061
:100F80000021094801605FF0006108480160704776
:100F900088ED00E00038024008380240FFFFF6FE0E
:100FA00010300024043802400C38024008ED00E004
:100FB00010B5034A7A440832024C7C44A41D03E075
:100FC000500000005C00000004E01168101D114496
:100FD00088470246A242F8D110BD7047FEE7FEE7FF
:100FE000FEE7FEE770477047704770474EF688513E
:100FF000CEF20001086840F470000860BFF34F8F24
:10100000BFF36F8F4FF00170E1EE100A70470000E0
:1010100047FAFFFFC0010000380000000000002078
:1010200000F00DF8002801D0FFF7C2FFAFF30080F9
:101030000020AFF30080FFF718FB00F002F801205A
:10104000704700F001B800000746384600F002F88B
:10105000FBE7000080B5AFF30080024A11001820C2
:10106000ABBEFBE7260002000548014603B4684614
:1010700080F30988AFF30080FFF7B8FFFFF7D0FFD8
:10108000A5EDF5FE0148804701480047510F0008D3
:1010900069100008FFF7FEBFFFF7FEBFFFF7FEBFB6
:1010A000FFF7FEBFFFF7FEBFFFF7FEBFFFF7FEBF74
:1010B000FFF7FEBFFFF7FEBFFFF7FEBFFFF7FEBF64
:1010C000FFF7FEBFFFF7FEBFFFF7FEBFFFF7FEBF54
:1010D000FFF7FEBFFFF7FEBFFFF7FEBFFFF7FEBF44
:1010E000FFF7FEBFFFF7FEBFFFF7FEBFFFF7FEBF34
:1010F000FFF7FEBFFFF7FEBFFFF7FEBFFFF7FEBF24
:10110000FFF7FEBFFFF7FEBFFFF7FEBFFFF7FEBF13
:10111000FFF7FEBFFFF7FEBFFFF7FEBFFFF7FEBF03
:10112000FFF7FEBFFFF7FEBFFFF7FEBFFFF7FEBFF3
:10113000FFF7FEBFFFF7FEBFFFF7FEBFFFF7FEBFE3
:10114000FFF7FEBFFFF7FEBFFFF7FEBFFFF7FEBFD3
:10115000FFF7FEBFFFF7FEBFFFF7FEBFFFF7FEBFC3
:10116000FFF7FEBFFFF7FEBFFFF7FEBFFFF7FEBFB3
:10117000FFF7FEBFFFF7FEBFFFF7FEBFFFF7FEBFA3
:10118000FFF7FEBFFFF7FEBFFFF7FEBFFFF7FEBF93
:10119000FFF7FEBFFFF7FEBFFFF7FEBFFFF7FEBF83
:1011A000FFF7FEBFFFF7FEBFFFF7FEBFFFF7FEBF73
:1011B000FFF7FEBFFFF7FEBFFFF7FEBFFFF7FEBF63
:1011C000FFF7FEBFFFF7FEBFFFF7FEBFFFF7FEBF53
:1011D000FFF7FEBF09C0F9A4B0999282D88090FAB7
:1011E000000B010203040102030406070809E700DB
:040000050800106976
:00000001FF
