:020000040800F2
:1000000038200020C50D00081B0D00081D0D00083C
:100010001F0D0008210D0008230D0008000000003E
:10002000000000000000000000000000250D000896
:10003000270D000800000000290D00082B0D000806
:10004000D50D0008D90D0008DD0D0008E10D0008F0
:10005000E50D0008E90D0008ED0D0008F10D0008A0
:10006000F50D0008F90D0008FD0D0008010E00084F
:10007000050E0008090E00080D0E0008110E0008FC
:10008000150E0008190E00088F0400081D0E000848
:10009000210E0008250E0008290E00082D0E00086C
:1000A000310E0008350E0008390E00083D0E00081C
:1000B000B7040008410E0008450E0008490E00086C
:1000C0004D0E0008510E0008550E0008590E00088C
:1000D0005D0E0008610E0008650E0008690E00083C
:1000E0006D0E0008710E0008750E0008790E0008EC
:1000F0007D0E0008810E0008850E0008890E00089C
:100100008D0E0008910E0008950E0008990E00084B
:100110009D0E0008A10E0008A50E0008A90E0008FB
:10012000AD0E0008B10E0008B50E0008B90E0008AB
:10013000BD0E0008C10E0008C50E0008C90E00085B
:10014000CD0E0008D10E0008D50E0008D90E00080B
:10015000DD0E0008E10E0008E50E0008E90E0008BB
:10016000ED0E0008F10E0008F50E0008F90E00086B
:10017000FD0E0008010F0008050F0008090F000818
:100180000D0F0008110F000801B402E00098401E96
:10019000009000980028F9D101B07047E0B5012126
:1001A000012000F073FA01208DF804002020009057
:1001B00000208DF8060000208DF807006946DFF862
:1001C000E40300F09DFA07BDE0B50121042000F032
:1001D0005DFA01208DF804004FF4FF7000900020BC
:1001E0008DF8060000208DF807006946DFF8B80397
:1001F00000F086FA0121022000F048FA01208DF873
:1002000004000F20009000208DF8060000208DF8DB
:1002100007006946E54800F073FA07BD2DE9F0478D
:1002200082460C0015001E00E04F0821380000F047
:10023000C2FADFF87483DFF8789319F806104900E2
:1002400089B2404600F0B7FA4FF47A70FFF79CFF8E
:100250000421380000F0AFFA19F80510490089B2FE
:10026000404600F0A8FA4FF47A70FFF78DFF0221A4
:10027000380000F0A0FA19F80410490089B240468D
:1002800000F099FA4FF47A70FFF77EFF01213800F1
:1002900000F091FA19F80A10490089B2404600F0BE
:1002A0008AFA4FF47A70FFF76FFFBDE8F08738B530
:1002B0000500C04C8021200000F024FB0028F8D06D
:1002C000EDB2290089B2200000F014FB31BD10B559
:1002D000B84C2021200000F015FB0028F8D02000A9
:1002E00000F00CFBC0B210BD1FB5040001210120BD
:1002F00000F0DAF943F67F60ADF80400641E029462
:100300000020ADF8060001A95FF0804000F024FB5A
:1003100001215FF0804000F091FB012201215FF09C
:10032000804000F06DFB01215FF0804000F04BFB4E
:100330004FF4C06000F086FB1C208DF80000002008
:100340008DF8010001208DF8020001208DF80300D6
:10035000684600F07CFB1FBD10B586B0012101206E
:1003600000F094F902208DF8040000208DF80600BA
:1003700001208DF807000C2000908A4C694620006F
:1003800000F0BEF907220221200000F017FA072230
:100390000321200000F012FA01215FF4003000F088
:1003A00083F95FF4E13002900020ADF80C000020EA
:1003B000ADF80E000020ADF810000C20ADF81200D2
:1003C0007C4C02A9200000F023FA0121200000F05B
:1003D00083FA06B010BD18B58DB00121042000F0DD
:1003E00055F90120019003208DF8080000208DF8B8
:1003F0000B0001A96C4800F083F94FF4C06000F0D5
:1004000021FB12208DF8000001208DF80100022050
:100410008DF8020001208DF80300684600F017FBFC
:1004200001214FF4807000F04DF900200990002068
:100430000B905FF440300A9009A800F068FB0020A0
:10044000039000208DF8100001208DF8110000208D
:100450000590002006900020079001208DF82000D4
:10046000554C03A9200000F02DFB002301220A2196
:10047000200000F068FB012240F20521200000F07E
:10048000D7FB0121200000F051FB0EB010BD38B5A4
:10049000494D40F205242100280000F0DAFB002835
:1004A00008D02100280000F0ECFB280000F0B5FB8C
:1004B0004249088031BD70B501215FF0804000F0F5
:1004C000ABFA002844D03E490B780A200C780A2267
:1004D00094FBF2F20A240D78642195FBF1F10A25D0
:1004E00093FBF0F600FB163392FBF4F004FB1022B2
:1004F00091FBF5F005FB10110020FFF78FFE314C4A
:10050000314D2E48028892B2120A21886A542188FD
:10051000491C21800188208829542088401C208083
:10052000208814280FD1A520FFF7C1FE002603E084
:10053000A85DFFF7BCFE761C142EF9DB5A20FFF7EE
:10054000B6FE0020208001215FF0804000F076FAA6
:1005500070BD10B5FFF722FEFFF736FE0A20FFF749
:10056000C3FEFFF7F9FEFFF736FF134800F050FB1C
:10057000134CFFF7ACFE207020780028F8D0094C0F
:100580002021200000F010F94FF47A70FFF7FCFDF5
:100590002021200000F00BF94FF47A70FFF7F4FDF2
:1005A000E6E70000000002400008024000040240AC
:1005B00000000020004400400020014030000020E6
:1005C00034000020320000201C00002010B4002164
:1005D00000210021022100210221DFF804211168FD
:1005E00011F00C01002904D0042906D0082908D0F4
:1005F0002DE0DFF8F41001602CE0DFF8F01001606E
:1006000028E0DFF8E0301968C1F380511C6814F06D
:100610003F04002909D0DFF8D410B1FBF4F41968C5
:10062000C1F3881101FB04F108E0DFF8BC10B1FB55
:10063000F4F41968C1F3881101FB04F11B68C3F3DA
:1006400001435B1C5B00B1FBF3F1016002E0DFF8EA
:1006500098100160136813F0F0031B09DFF8901085
:10066000CC5C0368E3404360136813F4E0539B0AD7
:10067000CC5C4368E3408360126812F46042520B22
:10068000895C4268CA40C26010BC7047C9B2002988
:1006900004D0184A11680843106004E0154A116834
:1006A00031EA000010607047C9B2002904D0124A34
:1006B00011680843106004E00F4A116831EA000035
:1006C00010607047C9B2002904D00C4A1168084371
:1006D000106004E0094A116831EA000010607047B8
:1006E00008380240043802400024F40040787D01BC
:1006F0000C000020303802404038024044380240AC
:10070000F0B4002200220022002349E0012515FA5E
:1007100003F40A682240A24241D1032402681E0069
:10072000F6B2760014FA06F6B243026006680F7954
:100730001A00D2B2520097403E4306600A79012A5D
:1007400002D00A79022A1AD182681E00F6B2760017
:1007500014FA06F6B243826086684F791A00D2B264
:10076000520097403E43866042689D4032EA05054C
:10077000456045688A799A4092B215434560C568DC
:100780001A00D2B25200944035EA0404C460C4682E
:10079000CD791A00D2B2520095402C43C4605B1C44
:1007A000102BB3D3F0BC704789B28161704789B216
:1007B00009048161704789B24161704770B40023B8
:1007C0000023D2B211F00703DBB29B009A400B006A
:1007D0009BB2DB1000EB83040B009BB2DB1000EB41
:1007E00083031D6A0F2611F00703DBB29B009E40B6
:1007F000B54325620B009BB2DB1000EB83031B6A41
:100800001A4389B2C91000EB8100026270BC7047C4
:1008100038B584B004000D00002000200020002026
:10082000A8890028218A31F44051E88801432182B7
:10083000A18928480140A888014328890143688983
:100840000143A181A18A31F44071A8890143A182A9
:100850006846FFF7BBFE1D48844202D01C48844214
:1008600001D1039900E00299A089000406D519205E
:10087000414328684000B1FBF0F205E019204143F4
:1008800028688000B1FBF0F26420B2FBF0F10901AE
:100890000B001B097FF0630000FB0322A08900040A
:1008A00008D5D00032306422B0FBF2F010F007001F
:1008B000014307E0120132326420B2FBF0F010F085
:1008C0000F000143218105B030BD00000010014040
:1008D00000140140F3E9FFFFC9B2002904D0818967
:1008E00051F40051818104E082894DF6FF710A4084
:1008F00082817047C905C90D818070478088C00515
:10090000C00D704700220A0092B2B2F5007F008845
:10091000084201D0012000E00020C0B2704730B58D
:10092000016884684218416802EB5103C90703D586
:100930004C4401E0491C08D19A4218BF12F9011B2E
:1009400001D10C3030BD12F8015B002904F8015BC5
:10095000F0D4491EF7D5EFE710B400220488214BEC
:1009600098420ED0254A90420BD0B0F1804F08D06B
:100970001D4A904205D01D4A904202D01C4A904226
:1009800005D14FF68F72144022004C881443194A47
:10099000904208D0184A904205D04FF6FF421440CA
:1009A00022000C89144304804A68C2620A880285C6
:1009B000984202D0114A904201D1897A01860121E0
:1009C000818210BC7047C9B2002904D0018851F05F
:1009D0000101018004E002884FF6FE710A400280A6
:1009E0007047000000000140000400400008004083
:1009F000000C0040001000400014004000040140C2
:100A0000D2B2002A03D082891143818103E0828916
:100A100032EA010181817047002200220022028A0D
:100A20000A408089014092B2002A04D089B200298C
:100A300001D0012000E00020C0B2704789B2C94354
:100A4000018270471A4908431A490860704700211B
:100A500000210F22C17800291ED01649096811F41F
:100A6000E061D1F5E061090AD1F10403D2B20A4193
:100A70004178994083781A40114309010E4B02785E
:100A800099540121027812F01F0291400B4A00781C
:100A9000401142F8201009E00121027812F01F02F3
:100AA0009140074A0078401142F82010704700003A
:100AB0000000FA050CED00E000E400E000E100E0D9
:100AC00080E100E010B4002200234468544A14403E
:100AD0000A7954EA02240A68144344608468514A3B
:100AE00014400A691443CA6814438A6814434A7953
:100AF00054EA42048460C26A32F47002097D491EDD
:100B00000B43DBB252EA0352C26210BC70470021B1
:100B1000454A136845490B4001680B4341680B4344
:100B200081680B43C068034313607047C9B2002952
:100B300004D0816851F00101816003E081684908B7
:100B4000490081607047F0B4002400240C00E4B236
:100B50000A2C12DBC5680726B1F10A04032714FB2F
:100B600007F4A640B543DBB2B1F10A06032416FB35
:100B700004F4A3402B43C3600DE00569072603245A
:100B800011FB04F4A640B543DBB2032411FB04F4CB
:100B9000A3402B4303611300DBB2072B10DA446B35
:100BA0001F25561E052316FB03F39D40AC43C9B217
:100BB000521E052312FB03F291402143416325E0BD
:100BC0001300DBB20D2B10DA046B1F25D61F052393
:100BD00016FB03F39D40AC43C9B2D31F052213FBA0
:100BE00002F291402143016310E0C46A1F25B2F173
:100BF0000D06052316FB03F39D40AC43C9B20D3A25
:100C0000052312FB03F291402143C162F0BC7047FF
:100C1000816851F0804181607047C06C80B270473C
:100C2000FFFEFFFCFDF7FFC004230140E030FCFFA6
:100C30000023C9B2012313FA01F1D2B2002A03D072
:100C400042681143416003E0426832EA01014160B9
:100C5000704710B40022002200220A0092B2120A49
:100C600092B24468012313FA01F121400068104256
:100C700003D0002901D0012000E00020C0B210BC48
:100C80007047002289B2090AC9B2C943016070479E
:100C90000F49086850F4700008600E49086850F069
:100CA0000100086000220C4802600A680B480240FC
:100CB0000A600B4A0B480260086830F48020086024
:100CC0000021094801605FF0006108480160704739
:100CD00088ED00E00038024008380240FFFFF6FED1
:100CE00010300024043802400C38024008ED00E0C7
:100CF00010B5034A7A440832024C7C44A41D03E038
:100D0000500000005C00000004E01168101D114458
:100D100088470246A242F8D110BD7047FEE7FEE7C1
:100D2000FEE7FEE770477047704770474EF6885100
:100D3000CEF20001086840F470000860BFF34F8FE6
:100D4000BFF36F8F4FF00170E1EE100A70470000A3
:100D5000CFFBFFFFC00100003800000000000020B2
:100D600000F00DF8002801D0FFF7C2FFAFF30080BC
:100D70000020AFF30080FFF7ECFB00F002F8012049
:100D8000704700F001B800000746384600F002F84E
:100D9000FBE7000080B5AFF30080024A1100182085
:100DA000ABBEFBE7260002000548014603B46846D7
:100DB00080F30988AFF30080FFF7B8FFFFF7D0FF9B
:100DC000A5EDF5FE0148804701480047910C000859
:100DD000A90D0008FFF7FEBFFFF7FEBFFFF7FEBF3C
:100DE000FFF7FEBFFFF7FEBFFFF7FEBFFFF7FEBF37
:100DF000FFF7FEBFFFF7FEBFFFF7FEBFFFF7FEBF27
:100E0000FFF7FEBFFFF7FEBFFFF7FEBFFFF7FEBF16
:100E1000FFF7FEBFFFF7FEBFFFF7FEBFFFF7FEBF06
:100E2000FFF7FEBFFFF7FEBFFFF7FEBFFFF7FEBFF6
:100E3000FFF7FEBFFFF7FEBFFFF7FEBFFFF7FEBFE6
:100E4000FFF7FEBFFFF7FEBFFFF7FEBFFFF7FEBFD6
:100E5000FFF7FEBFFFF7FEBFFFF7FEBFFFF7FEBFC6
:100E6000FFF7FEBFFFF7FEBFFFF7FEBFFFF7FEBFB6
:100E7000FFF7FEBFFFF7FEBFFFF7FEBFFFF7FEBFA6
:100E8000FFF7FEBFFFF7FEBFFFF7FEBFFFF7FEBF96
:100E9000FFF7FEBFFFF7FEBFFFF7FEBFFFF7FEBF86
:100EA000FFF7FEBFFFF7FEBFFFF7FEBFFFF7FEBF76
:100EB000FFF7FEBFFFF7FEBFFFF7FEBFFFF7FEBF66
:100EC000FFF7FEBFFFF7FEBFFFF7FEBFFFF7FEBF56
:100ED000FFF7FEBFFFF7FEBFFFF7FEBFFFF7FEBF46
:100EE000FFF7FEBFFFF7FEBFFFF7FEBFFFF7FEBF36
:100EF000FFF7FEBFFFF7FEBFFFF7FEBFFFF7FEBF26
:100F0000FFF7FEBFFFF7FEBFFFF7FEBFFFF7FEBF15
:100F1000FFF7FEBF09C0F9A4B0999282D88090FA79
:100F2000000B010203040102030406070809E7009D
:0400000508000DA939
:00000001FF
