:020000040800F2
:10000000282000208D0C00081F0800082108000887
:100010002308000825080008270800080000000041
:100020000000000000000000000000002908000897
:100030002B080008000000002D0800082F08000809
:100040009D0C0008A10C0008A50C0008A90C0008D4
:10005000AD0C0008B10C0008B50C0008B90C000884
:10006000BD0C0008C10C0008C50C0008C90C000834
:10007000CD0C0008D10C0008D50C0008D90C0008E4
:10008000DD0C0008E10C0008A7030008E50C0008DF
:10009000E90C0008ED0C0008F10C0008F50C000854
:1000A000F90C0008FD0C0008010D0008050D000802
:1000B000CF030008090D00080D0D0008110D000800
:1000C000150D0008190D00081D0D0008210D000870
:1000D000250D0008290D00082D0D0008310D000820
:1000E000350D0008390D00083D0D0008410D0008D0
:1000F000450D0008490D00084D0D0008510D000880
:10010000550D0008590D00085D0D0008610D00082F
:10011000650D0008690D00086D0D0008710D0008DF
:10012000750D0008790D00087D0D0008810D00088F
:10013000850D0008890D00088D0D0008910D00083F
:10014000950D0008990D00089D0D0008A10D0008EF
:10015000A50D0008A90D0008AD0D0008B10D00089F
:10016000B50D0008B90D0008BD0D0008C10D00084F
:10017000C50D0008C90D0008CD0D0008D10D0008FF
:10018000D50D0008D90D000801B402E00098401E0A
:10019000009000980028F9D101B07047E0B5012126
:1001A000012000F0D9F901208DF8040020200090F2
:1001B00000208DF8060000208DF807006946AF4842
:1001C00000F004FA07BD38B50500AD4C80212000D1
:1001D00000F018FB0028F8D0EDB2290089B2200009
:1001E00000F008FB31BD10B5A54C2021200000F027
:1001F00009FB0028F8D0200000F000FBC0B210BDC1
:100200001FB504000121012000F0B4F943F67F601E
:10021000ADF80400641E02940020ADF8060001A9A8
:100220005FF0804000F004FB01215FF0804000F0AF
:1002300071FB012201215FF0804000F04DFB0121A4
:100240005FF0804000F02BFB4FF4C06000F066FBD5
:100250001C208DF8000000208DF8010001208DF891
:10026000020001208DF80300684600F05CFB1FBD12
:1002700010B586B00121012000F06EF902208DF842
:10028000040000208DF8060001208DF807000C20E6
:1002900000907A4C6946200000F098F9072202216C
:1002A000200000F0EEF907220321200000F0E9F918
:1002B00001215FF4003000F05DF95FF4E13002905D
:1002C0000020ADF80C000020ADF80E000020ADF8C5
:1002D00010000C20ADF81200694C02A9200000F0BB
:1002E00017FA0121200000F077FA06B010BD18B50A
:1002F0008DB00121042000F02FF90120019003208E
:100300008DF8080000208DF80B0001A95D4800F071
:100310005DF94FF4C06000F001FB12208DF8000081
:1003200001208DF8010002208DF8020001208DF8D7
:100330000300684600F0F7FA01214FF4807000F0E6
:1003400027F90020099000200B905FF440300A90BC
:1003500009A800F048FB0020039000208DF8100051
:1003600001208DF81100002005900020069000204B
:10037000079001208DF82000434C03A9200000F0D5
:100380000DFB002301220A21200000F048FB01227E
:1003900040F20521200000F0B7FB0121200000F011
:1003A00031FB0EB010BD38B5374D40F205242100A9
:1003B000280000F0BAFB002808D02100280000F037
:1003C000CCFB280000F095FB3049088031BD70B5AA
:1003D00001215FF0804000F08BFA002828D02C4CDF
:1003E0002C4D2A48028892B2120A21886A54218828
:1003F000491C21800188208829542088401C2080A5
:10040000208814280FD1A520FFF7DDFE002603E089
:10041000A85DFFF7D8FE761C142EF9DB5A20FFF7F3
:10042000D2FE0020208001215FF0804000F072FAAF
:1004300070BD10B5FFF7B2FE0A20FFF7E1FEFFF72F
:1004400017FFFFF754FF104800F04EFBFFF7CBFEFD
:10045000C0B20028FAD0094C2021200000F00AF98F
:100460004FF47A70FFF790FE2021200000F005F98C
:100470004FF47A70FFF788FEE8E7000000000240C2
:1004800000440040000802400020014024000020F9
:10049000260000201000002010B4002100210021BF
:1004A000022100210221DFF80421116811F00C0162
:1004B000002904D0042906D0082908D02DE0DFF84F
:1004C000F41001602CE0DFF8F010016028E0DFF8A4
:1004D000E0301968C1F380511C6814F03F04002912
:1004E00009D0DFF8D410B1FBF4F41968C1F3881116
:1004F00001FB04F108E0DFF8BC10B1FBF4F419686B
:10050000C1F3881101FB04F11B68C3F301435B1CB9
:100510005B00B1FBF3F1016002E0DFF898100160CD
:10052000136813F0F0031B09DFF89010CC5C03682C
:10053000E3404360136813F4E0539B0ACC5C4368C8
:10054000E3408360126812F46042520B895C426897
:10055000CA40C26010BC7047C9B2002904D0184A12
:1005600011680843106004E0154A116831EA000080
:1005700010607047C9B2002904D0124A11680843BC
:10058000106004E00F4A116831EA00001060704703
:10059000C9B2002904D00C4A11680843106004E075
:1005A000094A116831EA00001060704708380240BB
:1005B000043802400024F40040787D01000000204F
:1005C000303802404038024044380240F0B4002243
:1005D00000220022002349E0012515FA03F40A68ED
:1005E0002240A24241D1032402681E00F6B27600E6
:1005F00014FA06F6B243026006680F791A00D2B206
:10060000520097403E4306600A79012A02D00A79D7
:10061000022A1AD182681E00F6B2760014FA06F693
:10062000B243826086684F791A00D2B25200974076
:100630003E43866042689D4032EA05054560456854
:100640008A799A4092B215434560C5681A00D2B2C1
:100650005200944035EA0404C460C468CD791A009D
:10066000D2B2520095402C43C4605B1C102BB3D314
:10067000F0BC704789B28161704789B20904816119
:10068000704770B400230023D2B211F00703DBB22D
:100690009B009A400B009BB2DB1000EB83040B0025
:1006A0009BB2DB1000EB83031D6A0F2611F00703DA
:1006B000DBB29B009E40B54325620B009BB2DB1072
:1006C00000EB83031B6A1A4389B2C91000EB810057
:1006D000026270BC704730B5016884684218416896
:1006E00002EB5103C90703D54C4401E0491C08D172
:1006F0009A4218BF12F9011B01D10C3030BD12F81B
:10070000015B002904F8015BF0D4491EF7D5EFE73F
:1007100038B584B004000D00002000200020002027
:10072000A8890028218A31F44051E88801432182B8
:10073000A18928480140A888014328890143688984
:100740000143A181A18A31F44071A8890143A182AA
:100750006846FFF7A1FE1D48844202D01C4884422F
:1007600001D1039900E00299A089000406D519205F
:10077000414328684000B1FBF0F205E019204143F5
:1007800028688000B1FBF0F26420B2FBF0F10901AF
:100790000B001B097FF0630000FB0322A08900040B
:1007A00008D5D00032306422B0FBF2F010F0070020
:1007B000014307E0120132326420B2FBF0F010F086
:1007C0000F000143218105B030BD00000010014041
:1007D00000140140F3E9FFFFC9B2002904D0818968
:1007E00051F40051818104E082894DF6FF710A4085
:1007F00082817047C905C90D818070478088C00516
:10080000C00D704700220A0092B2B2F5007F008846
:10081000084201D0012000E00020C0B270477047BC
:10082000FEE7FEE7FEE7FEE7704770477047704758
:1008300010B400220488214B98420ED0254A9042E1
:100840000BD0B0F1804F08D01D4A904205D01D4A10
:10085000904202D01C4A904205D14FF68F7214404C
:1008600022004C881443194A904208D0184A9042FA
:1008700005D04FF6FF42144022000C891443048037
:100880004A68C2620A880285984202D0114A9042A0
:1008900001D1897A01860121818210BC7047C9B2D9
:1008A000002904D0018851F00101018004E0028890
:1008B0004FF6FE710A4002807047000000000140C0
:1008C0000004004000080040000C00400010004000
:1008D0000014004000040140D2B2002A03D08289F3
:1008E0001143818103E0828932EA010181817047ED
:1008F000002200220022028A0A408089014092B22E
:10090000002A04D089B2002901D0012000E0002093
:10091000C0B2704789B2C943018270471A4908437F
:100920001A4908607047002100210F22C178002970
:100930001ED01649096811F4E061D1F5E061090A99
:10094000D1F10403D2B20A414178994083781A4028
:10095000114309010E4B027899540121027812F0DB
:100960001F0291400B4A0078401142F8201009E024
:100970000121027812F01F029140074A00784011CD
:1009800042F82010704700000000FA050CED00E06E
:1009900000E400E000E100E080E100E010B40022AB
:1009A00000234468544A14400A7954EA02240A682D
:1009B000144344608468514A14400A691443CA6865
:1009C00014438A6814434A7954EA42048460C26A30
:1009D00032F47002097D491E0B43DBB252EA035226
:1009E000C26210BC70470021454A136845490B405C
:1009F00001680B4341680B4381680B43C0680343A4
:100A000013607047C9B2002904D0816851F0010118
:100A1000816003E081684908490081607047F0B453
:100A2000002400240C00E4B20A2C12DBC56807265F
:100A3000B1F10A04032714FB07F4A640B543DBB267
:100A4000B1F10A06032416FB04F4A3402B43C36050
:100A50000DE005690726032411FB04F4A640B54305
:100A6000DBB2032411FB04F4A3402B430361130006
:100A7000DBB2072B10DA446B1F25561E052316FB2D
:100A800003F39D40AC43C9B2521E052312FB03F28F
:100A900091402143416325E01300DBB20D2B10DAB6
:100AA000046B1F25D61F052316FB03F39D40AC43A3
:100AB000C9B2D31F052213FB02F291402143016307
:100AC00010E0C46A1F25B2F10D06052316FB03F3DF
:100AD0009D40AC43C9B20D3A052312FB03F291408D
:100AE0002143C162F0BC7047816851F08041816050
:100AF0007047C06C80B27047FFFEFFFCFDF7FFC07F
:100B000004230140E030FCFF0023C9B2012313FAA3
:100B100001F1D2B2002A03D042681143416003E0E0
:100B2000426832EA01014160704710B4002200229D
:100B300000220A0092B2120A92B24468012313FA08
:100B400001F121400068104203D0002901D00120AA
:100B500000E00020C0B210BC7047002289B2090A30
:100B6000C9B2C943016070470F49086850F470006A
:100B700008600E49086850F00100086000220C4827
:100B800002600A680B4802400A600B4A0B48026088
:100B9000086830F4802008600021094801605FF097
:100BA000006108480160704788ED00E000380240AD
:100BB00008380240FFFFF6FE1030002404380240DF
:100BC0000C38024008ED00E010B5034A7A440832C0
:100BD000024C7C44A41D03E0400000004C000000D7
:100BE00004E01168101D114488470246A242F8D162
:100BF00010BD00004EF68851CEF20001086840F4A6
:100C000070000860BFF34F8FBFF36F8F4FF001701C
:100C1000E1EE100A70470000BFFAFFFFC0010000BC
:100C2000220000000000002000F00DF8002801D094
:100C3000FFF7CAFFAFF300800020AFF30080FFF79B
:100C4000F8FB00F002F80120704700F001B8000046
:100C50000746384600F002F8FBE7000080B5AFF326
:100C60000080024A11001820ABBEFBE726000200FC
:100C70000548014603B4684680F30988AFF3008055
:100C8000FFF7B8FFFFF7D0FFA5EDF5FE014880475D
:100C900001480047690B0008710C0008FFF7FEBF10
:100CA000FFF7FEBFFFF7FEBFFFF7FEBFFFF7FEBF78
:100CB000FFF7FEBFFFF7FEBFFFF7FEBFFFF7FEBF68
:100CC000FFF7FEBFFFF7FEBFFFF7FEBFFFF7FEBF58
:100CD000FFF7FEBFFFF7FEBFFFF7FEBFFFF7FEBF48
:100CE000FFF7FEBFFFF7FEBFFFF7FEBFFFF7FEBF38
:100CF000FFF7FEBFFFF7FEBFFFF7FEBFFFF7FEBF28
:100D0000FFF7FEBFFFF7FEBFFFF7FEBFFFF7FEBF17
:100D1000FFF7FEBFFFF7FEBFFFF7FEBFFFF7FEBF07
:100D2000FFF7FEBFFFF7FEBFFFF7FEBFFFF7FEBFF7
:100D3000FFF7FEBFFFF7FEBFFFF7FEBFFFF7FEBFE7
:100D4000FFF7FEBFFFF7FEBFFFF7FEBFFFF7FEBFD7
:100D5000FFF7FEBFFFF7FEBFFFF7FEBFFFF7FEBFC7
:100D6000FFF7FEBFFFF7FEBFFFF7FEBFFFF7FEBFB7
:100D7000FFF7FEBFFFF7FEBFFFF7FEBFFFF7FEBFA7
:100D8000FFF7FEBFFFF7FEBFFFF7FEBFFFF7FEBF97
:100D9000FFF7FEBFFFF7FEBFFFF7FEBFFFF7FEBF87
:100DA000FFF7FEBFFFF7FEBFFFF7FEBFFFF7FEBF77
:100DB000FFF7FEBFFFF7FEBFFFF7FEBFFFF7FEBF67
:100DC000FFF7FEBFFFF7FEBFFFF7FEBFFFF7FEBF57
:100DD000FFF7FEBFFFF7FEBFFFF7FEBFFC000B01F2
:0D0DE0000203040102030406070809E800ED
:0400000508000C7172
:00000001FF
