:020000040800F2
:10000000502000206D130008C3120008C51200081C
:10001000C7120008C9120008CB1200080000000037
:10002000000000000000000000000000CD120008E9
:10003000CF12000800000000D1120008D3120008FF
:100040007D13000881130008851300088913000838
:100050008D130008911300089513000899130008E8
:100060009D130008A1130008A5130008A913000898
:10007000AD130008B1130008B5130008B913000848
:10008000BD130008C113000849060008C513000885
:10009000C9130008CD130008D1130008D5130008B8
:1000A000D9130008DD130008E1130008E513000868
:1000B00071060008E9130008ED130008F1130008A9
:1000C000F5130008F9130008FD13000801140008D7
:1000D00005140008091400080D1400081114000884
:1000E000B907000815140008191400081D140008A9
:1000F0002114000825140008291400082D140008F4
:100100003114000835140008391400083D140008A3
:100110004114000845140008491400084D14000853
:100120005114000855140008591400085D14000803
:100130006114000865140008691400086D140008B3
:100140007114000875140008791400087D14000863
:100150008114000885140008891400088D14000813
:100160009114000895140008991400089D140008C3
:10017000A1140008A5140008A9140008AD14000873
:10018000B1140008B514000801B402E00098401E44
:10019000009000980028F9D101B07047E0B5012126
:1001A000012000F0D3FB01208DF8040020200090F6
:1001B00000208DF8060000208DF807006946DFF862
:1001C000840600F0FDFB07BDE0B50121042000F02E
:1001D000BDFB01208DF804004FF4FF70009000205B
:1001E0008DF8060000208DF807006946DFF85806F4
:1001F00000F0E6FB0121022000F0A8FB01208DF8B1
:1002000004000F20009000208DF8060000208DF8DB
:1002100007006946DFF8340600F0D2FB07BD1CB5C5
:100220000121022000F092FB02208DF804004FF41F
:100230007070009000208DF8060000208DF80700F7
:10024000DFF808466946200000F0BAFB02220621CA
:10025000200000F013FC02220721200000F00EFC19
:1002600002220821200000F009FC022209212000BE
:1002700000F004FC13BD2DE9F04782460C00150088
:100280001E00DFF8C8750821380000F0F4FBDFF825
:10029000B885DFF8BC9519F80610490089B24046C8
:1002A00000F0E9FB4FF47A70FFF76EFF042138008D
:1002B00000F0E1FB19F80510490089B2404600F052
:1002C000DAFB4FF47A70FFF75FFF0221380000F08D
:1002D000D2FB19F80410490089B2404600F0CBFB6C
:1002E0004FF47A70FFF750FF0121380000F0C3FB94
:1002F00019F80A10490089B2404600F0BCFB4FF4DF
:100300007A70FFF741FFBDE8F08770B5DFF83C4534
:100310000821200000F0AFFBDFF82C55DFF8346532
:100320003178490089B2280000F0A5FB4FF47A70BB
:10033000FFF72AFF0421200000F09DFBDFF81005E5
:100340000178490089B2280000F095FB4FF47A70DB
:10035000FFF71AFF0221200000F08DFB31784900E1
:1003600089B2280000F087FB4FF47A70FFF70CFF8A
:100370000121200000F07FFB7178490089B228003C
:1003800000F079FB4FF47A70FFF7FEFE70BD38B5D0
:100390000500DFF8C4448021200000F013FC002891
:1003A000F7D0EDB2290089B2200000F003FC31BD86
:1003B00010B5DFF8A4442021200000F003FC002841
:1003C000F7D0200000F0FAFBC0B210BD1FB504004A
:1003D0000121012000F0C8FA43F67F60ADF8040067
:1003E000641E02940020ADF8060001A95FF0804071
:1003F00000F012FC01215FF0804000F075FD012249
:1004000001215FF0804000F051FD01215FF080404C
:1004100000F039FC4FF4C06000F06AFD1C208DF83C
:10042000000000208DF8010001208DF8020001205D
:100430008DF80300684600F060FD1FBD1FB5012167
:10044000042000F091FAA820ADF8000040F2667098
:1004500001900020ADF802000020ADF80800DFF8A0
:10046000FC436946200000F0D7FB0121200000F08A
:100470000AFC1FBD18B585B06020ADF80000012052
:10048000ADF802000020ADF80C0000200290DFF86B
:10049000CC436946200000F004FC6946200000F0CF
:1004A0003EFC6946200000F07EFC6946200000F01A
:1004B000BDFC06B010BD10B586B00121012000F0D2
:1004C00045FA02208DF8040000208DF80600012076
:1004D0008DF807000C200090DFF868436946200083
:1004E00000F06EFA07220221200000F0C7FA07226E
:1004F0000321200000F0C2FA01215FF4003000F077
:1005000033FA5FF4E13002900020ADF80C000020D7
:10051000ADF80E000020ADF810000C20ADF8120070
:10052000CD4C02A9200000F0D3FA0121200000F0F8
:1005300033FB06B010BD18B58DB00121042000F0CA
:1005400005FA0120019003208DF8080000208DF8A5
:100550000B0001A9BC4800F033FA4FF4C06000F072
:10056000C7FC12208DF8000001208DF80100022048
:100570008DF8020001208DF80300684600F0BDFCF4
:1005800001214FF4807000F0FDF900200990002057
:100590000B905FF440300A9009A800F00EFD002097
:1005A000039000208DF8100001208DF8110000202C
:1005B0000590002006900020079001208DF8200073
:1005C000A74C03A9200000F0D3FC002301220A213C
:1005D000200000F00EFD012240F20521200000F075
:1005E0007DFD0121200000F0F7FC0EB010BDE0B54C
:1005F00001214FF4804000F0C5F90D21022000F0E8
:100600009DFD4FF40050019000208DF808000C2053
:100610008DF8090001208DF80A0001A800F0B8FD4E
:100620004FF4C06000F064FC28208DF8000000202A
:100630008DF8010001208DF8020001208DF80300E3
:10064000684600F05AFC07BD38B5854D40F20524D8
:100650002100280000F053FD002808D021002800C8
:1006600000F065FD280000F02EFD7E49088031BDB8
:10067000F8B501215FF0804000F024FC002800F074
:100680009A80794C207800281BD023780A20227881
:100690000A2192FBF1F20A252678642196FBF1F1FA
:1006A0000A2693FBF0F700FB173392FBF5F005FBEE
:1006B000102291FBF6F006FB10110020FFF7DBFD86
:1006C00001E0FFF722FE20783D2810DA207800288C
:1006D0000DD066486649096850F8211065480160E8
:1006E00000216548016000216448016036E02078FF
:1006F0003D3814280DD200205E4908605B485C49F3
:10070000096850F821105C48016000215B480160D5
:1007100024E0207851280DDB00215648016000219B
:100720005548016051485249096850F82110534812
:10073000016013E02078002810D14D484B49026831
:1007400051F822204B4B1A60026851F822204A4B84
:100750001A60006851F820104848016020782F3056
:1007600047490860474C484D3E48018889B2090A0C
:100770002288A9542188491C218000882188685436
:100780002088401C2080208814280FD1A520FFF746
:10079000FEFD002603E0A85DFFF7F9FD761C142E90
:1007A000F9DB5A20FFF7F3FD0020208001215FF0E4
:1007B000804000F099FBF1BD80B54FF4005000F08F
:1007C00023FD00280CD02A480168491C01600168FB
:1007D000042901DB002101604FF4005000F01EFDF0
:1007E00001BD10B5FFF7DAFCFFF7EEFCFFF717FDD0
:1007F000FFF724FEFFF73EFEFFF7F9FE0A20FFF7A2
:10080000E5FDFFF758FEFFF796FE154800F056FC91
:10081000154CFFF7CDFD207020780028F8D0094C4A
:100820002021200000F020F94FF47A70FFF7ACFC93
:100830002021200000F01BF94FF47A70FFF7A4FC90
:10084000E6E7000000000240000802400004024009
:10085000000000200C000020004400400008004080
:1008600000200140480000204C0000201000002023
:100870004400002034080040380800403C08004094
:10088000400800404A0000203000002010B4002141
:1008900000210021022100210221DFF8042111683A
:1008A00011F00C01002904D0042906D0082908D031
:1008B0002DE0DFF8F41001602CE0DFF8F0100160AB
:1008C00028E0DFF8E0301968C1F380511C6814F0AB
:1008D0003F04002909D0DFF8D410B1FBF4F4196803
:1008E000C1F3881101FB04F108E0DFF8BC10B1FB93
:1008F000F4F41968C1F3881101FB04F11B68C3F318
:1009000001435B1C5B00B1FBF3F1016002E0DFF827
:1009100098100160136813F0F0031B09DFF89010C2
:10092000CC5C0368E3404360136813F4E0539B0A14
:10093000CC5C4368E3408360126812F46042520B5F
:10094000895C4268CA40C26010BC7047C9B20029C5
:1009500004D0184A11680843106004E0154A116871
:1009600031EA000010607047C9B2002904D0124A71
:1009700011680843106004E00F4A116831EA000072
:1009800010607047C9B2002904D00C4A11680843AE
:10099000106004E0094A116831EA000010607047F5
:1009A00008380240043802400024F40040787D01F9
:1009B00020000020303802404038024044380240D5
:1009C000F0B4002200220022002349E0012515FA9C
:1009D00003F40A682240A24241D1032402681E00A7
:1009E000F6B2760014FA06F6B243026006680F7992
:1009F0001A00D2B2520097403E4306600A79012A9B
:100A000002D00A79022A1AD182681E00F6B2760054
:100A100014FA06F6B243826086684F791A00D2B2A1
:100A2000520097403E43866042689D4032EA050589
:100A3000456045688A799A4092B215434560C56819
:100A40001A00D2B25200944035EA0404C460C4686B
:100A5000CD791A00D2B2520095402C43C4605B1C81
:100A6000102BB3D3F0BC704789B28161704789B253
:100A700009048161704789B24161704770B40023F5
:100A80000023D2B211F00703DBB29B009A400B00A7
:100A90009BB2DB1000EB83040B009BB2DB1000EB7E
:100AA00083031D6A0F2611F00703DBB29B009E40F3
:100AB000B54325620B009BB2DB1000EB83031B6A7E
:100AC0001A4389B2C91000EB8100026270BC704702
:100AD00038B584B004000D00002000200020002064
:100AE000A8890028218A31F44051E88801432182F5
:100AF000A18928480140A8880143288901436889C1
:100B00000143A181A18A31F44071A8890143A182E6
:100B10006846FFF7BBFE1D48844202D01C48844251
:100B200001D1039900E00299A089000406D519209B
:100B3000414328684000B1FBF0F205E01920414331
:100B400028688000B1FBF0F26420B2FBF0F10901EB
:100B50000B001B097FF0630000FB0322A089000447
:100B600008D5D00032306422B0FBF2F010F007005C
:100B7000014307E0120132326420B2FBF0F010F0C2
:100B80000F000143218105B030BD0000001001407D
:100B900000140140F3E9FFFFC9B2002904D08189A4
:100BA00051F40051818104E082894DF6FF710A40C1
:100BB00082817047C905C90D818070478088C00552
:100BC000C00D704700220A0092B2B2F5007F008883
:100BD000084201D0012000E00020C0B2704730B5CB
:100BE000016884684218416802EB5103C90703D5C4
:100BF0004C4401E0491C08D19A4218BF12F9011B6C
:100C000001D10C3030BD12F8015B002904F8015B02
:100C1000F0D4491EF7D5EFE710B4002204889C4BAE
:100C200098420ED0A04A90420BD0B0F1804F08D02D
:100C3000984A904205D0984A904202D0974A9042F2
:100C400005D14FF68F72144022004C881443944A09
:100C5000904208D0934A904205D04FF6FF4214408C
:100C600022000C89144304804A68C2620A88028503
:100C7000984202D08C4A904201D1897A01860121A2
:100C8000818210BC7047C9B2002904D0018851F09C
:100C90000101018004E002884FF6FE710A400280E3
:100CA000704730B4002200220022038C4FF6FE72FF
:100CB00013400384038C8488058B4FF68F72154094
:100CC0004FF6FC7215400A8815434FF6FD7213402B
:100CD0008A8913434A8813436D4A904202D0724A6C
:100CE000904215D14FF6F7721340CA8913434FF65D
:100CF000FB7213401A008B8813434FF6FF621440B7
:100D00004FF6FF5214400A8A144322004C8A1443BF
:100D10008480058389684163038430BC704730B4A4
:100D2000002200220022038C4FF6EF72134003844E
:100D3000038C8588048B48F6FF7214404FF6FF42FF
:100D400014400A8854EA02244FF6DF7213408A895D
:100D500053EA02134A8853EA02134D4A904202D0E2
:100D6000514A904218D14FF67F721340CA8953EA14
:100D700002131A004FF6BF7313408A8853EA021316
:100D80004FF6FF3215404FF2FF7215400A8A55EABE
:100D900082054A8A55EA82058580048389688163D1
:100DA000038430BC704730B4002200220022038C40
:100DB0004FF6FF6213400384038C8588848B4FF6C3
:100DC0008F7214404FF6FC7214400A8814434FF699
:100DD000FF5213408A8953EA02234A8853EA0223C6
:100DE0002B4A904202D0304A904218D14FF2FF7203
:100DF0001340CA8953EA02231A004FF6FF33134007
:100E00008A8853EA02234EF6FF7215404DF6FF72B0
:100E100015400A8A55EA02154A8A55EA0215858064
:100E200084838968C163038430BC704730B4002276
:100E300000220022038C4EF6FF7213400384038CC1
:100E40008588848B48F6FF7214404FF6FF421440A9
:100E50000A8854EA02244DF6FF7213408A8953EA45
:100E600002334A8853EA0233094A904202D00E4ABA
:100E7000904205D14BF6FF7215400A8A55EA821559
:100E80008580848389680164038430BC70470000D6
:100E9000000001400004004000080040000C004039
:100EA000001000400014004000040140D2B2002AAB
:100EB00003D082891143818103E0828932EA0101F2
:100EC00081817047002200220022028A0A40808924
:100ED000014092B2002A04D089B2002901D0012039
:100EE00000E00020C0B2704789B2C9430182704758
:100EF0001A4908431A4908607047002100210F224F
:100F0000C17800291ED01649096811F4E061D1F5B5
:100F1000E061090AD1F10403D2B20A414178994053
:100F200083781A40114309010E4B0278995401212C
:100F3000027812F01F0291400B4A0078401142F8EB
:100F4000201009E00121027812F01F029140074AA7
:100F50000078401142F82010704700000000FA05A8
:100F60000CED00E000E400E000E100E080E100E0E2
:100F700010B4002200234468544A14400A7954EA09
:100F800002240A68144344608468514A14400A6980
:100F90001443CA6814438A6814434A7954EA4204E1
:100FA0008460C26A32F47002097D491E0B43DBB2D1
:100FB00052EA0352C26210BC70470021454A1368CE
:100FC00045490B4001680B4341680B4381680B4363
:100FD000C068034313607047C9B2002904D0816818
:100FE00051F00101816003E0816849084900816096
:100FF0007047F0B4002400240C00E4B20A2C12DB89
:10100000C5680726B1F10A04032714FB07F4A640BC
:10101000B543DBB2B1F10A06032416FB04F4A34086
:101020002B43C3600DE005690726032411FB04F47C
:10103000A640B543DBB2032411FB04F4A3402B43C9
:1010400003611300DBB2072B10DA446B1F25561E19
:10105000052316FB03F39D40AC43C9B2521E052382
:1010600012FB03F291402143416325E01300DBB200
:101070000D2B10DA046B1F25D61F052316FB03F377
:101080009D40AC43C9B2D31F052213FB02F291402D
:101090002143016310E0C46A1F25B2F10D06052348
:1010A00016FB03F39D40AC43C9B20D3A052312FB76
:1010B00003F291402143C162F0BC7047816851F056
:1010C000804181607047C06C80B27047FFFEFFFCBA
:1010D000FDF7FFC004230140E030FCFF0023C9B24C
:1010E000012313FA01F1D2B2002A03D0426811435E
:1010F000416003E0426832EA01014160704710B488
:101100000022002200220A0092B2120A92B244681F
:10111000012313FA01F121400068104203D0002995
:1011200001D0012000E00020C0B210BC70470022B6
:1011300089B2090AC9B2C9430160704710B40022DC
:101140000F2411F00302D2B2920094400F4B0A0018
:10115000D2B2921053F8222032EA04040A00D2B22A
:10116000921043F822400A00D2B2921053F8224063
:10117000C0B211F00302D2B2920090402043C9B233
:10118000891043F8210010BC704700000838014066
:1011900030B40021234A1300817900292CD0214D3D
:1011A0002C6801688C432C601F4D2C6801688C43AF
:1011B0002C6001795C18236801680B4323601B4B8A
:1011C0001C6801688C431C60194C256801688D43BC
:1011D00025604179102908D11A6801680A431A600C
:1011E00021680068014321600CE0417952181168C0
:1011F00000680143116005E001795A181168006820
:101200008143116030BC704700210A4909680142DE
:1012100001D0012000E00020C0B2704705490860FD
:1012200070470000003C0140043C0140083C014084
:101230000C3C0140143C01400F49086850F4700018
:1012400008600E49086850F00100086000220C4850
:1012500002600A680B4802400A600B4A0B480260B1
:10126000086830F4802008600021094801605FF0C0
:10127000006108480160704788ED00E000380240D6
:1012800008380240FFFFF6FE103000240438024008
:101290000C38024008ED00E010B5034A7A440832E9
:1012A000024C7C44A41D03E0500000005C000000E0
:1012B00004E01168101D114488470246A242F8D18B
:1012C00010BD7047FEE7FEE7FEE7FEE77047704798
:1012D000704770474EF68851CEF20001086840F41E
:1012E00070000860BFF34F8FBFF36F8F4FF0017036
:1012F000E1EE100A70470000E7F8FFFFBC010000B4
:10130000600000000000002000F00DF8002801D06F
:10131000FFF7C2FFAFF300800020AFF30080FFF7BC
:1013200060FA00F002F80120704700F001B80000F8
:101330000746384600F002F8FBE7000080B5AFF33F
:101340000080024A11001820ABBEFBE72600020015
:101350000548014603B4684680F30988AFF300806E
:10136000FFF7B8FFFFF7D0FFA5EDF5FE0148804776
:10137000014800473912000851130008FFF7FEBF6B
:10138000FFF7FEBFFFF7FEBFFFF7FEBFFFF7FEBF91
:10139000FFF7FEBFFFF7FEBFFFF7FEBFFFF7FEBF81
:1013A000FFF7FEBFFFF7FEBFFFF7FEBFFFF7FEBF71
:1013B000FFF7FEBFFFF7FEBFFFF7FEBFFFF7FEBF61
:1013C000FFF7FEBFFFF7FEBFFFF7FEBFFFF7FEBF51
:1013D000FFF7FEBFFFF7FEBFFFF7FEBFFFF7FEBF41
:1013E000FFF7FEBFFFF7FEBFFFF7FEBFFFF7FEBF31
:1013F000FFF7FEBFFFF7FEBFFFF7FEBFFFF7FEBF21
:10140000FFF7FEBFFFF7FEBFFFF7FEBFFFF7FEBF10
:10141000FFF7FEBFFFF7FEBFFFF7FEBFFFF7FEBF00
:10142000FFF7FEBFFFF7FEBFFFF7FEBFFFF7FEBFF0
:10143000FFF7FEBFFFF7FEBFFFF7FEBFFFF7FEBFE0
:10144000FFF7FEBFFFF7FEBFFFF7FEBFFFF7FEBFD0
:10145000FFF7FEBFFFF7FEBFFFF7FEBFFFF7FEBFC0
:10146000FFF7FEBFFFF7FEBFFFF7FEBFFFF7FEBFB0
:10147000FFF7FEBFFFF7FEBFFFF7FEBFFFF7FEBFA0
:10148000FFF7FEBFFFF7FEBFFFF7FEBFFFF7FEBF90
:10149000FFF7FEBFFFF7FEBFFFF7FEBFFFF7FEBF80
:1014A000FFF7FEBFFFF7FEBFFFF7FEBFFFF7FEBF70
:1014B000FFF7FEBFFFF7FEBF1DC0F9A4B0999282EF
:1014C000D880900000888600002C010000F4010004
:1014D00000E8030000D007FA000B01020304010238
:0814E000030406070809E300FC
:04000005080013518B
:00000001FF
