:020000040800F2
:1000000050200020A5120008FB110008FD11000877
:10001000FF11000801120008031200080000000090
:1000200000000000000000000000000005120008B1
:100030000712000800000000091200080B12000857
:10004000B5120008B9120008BD120008C11200085C
:10005000C5120008C9120008CD120008D11200080C
:10006000D5120008D9120008DD120008E1120008BC
:10007000E5120008E9120008ED120008F11200086C
:10008000F5120008F9120008C3050008FD12000867
:100090000113000805130008091300080D130008D8
:1000A0001113000815130008191300081D13000888
:1000B000EB05000821130008251300082913000888
:1000C0002D130008311300083513000839130008F8
:1000D0003D130008411300084513000849130008A8
:1000E000F50600084D1300085113000855130008C9
:1000F000591300085D130008611300086513000818
:10010000691300086D1300087113000875130008C7
:10011000791300087D130008811300088513000877
:10012000891300088D130008911300089513000827
:10013000991300089D130008A1130008A5130008D7
:10014000A9130008AD130008B1130008B513000887
:10015000B9130008BD130008C1130008C513000837
:10016000C9130008CD130008D1130008D5130008E7
:10017000D9130008DD130008E1130008E513000897
:10018000E9130008ED13000801B402E00098401ED6
:10019000009000980028F9D101B07047E0B5012126
:1001A000012000F06FFB01208DF80400202000905A
:1001B00000208DF8060000208DF807006946DFF862
:1001C000C00500F099FB07BDE0B50121042000F057
:1001D00059FB01208DF804004FF4FF7000900020BF
:1001E0008DF8060000208DF807006946DFF89405B9
:1001F00000F082FB0121022000F044FB01208DF879
:1002000004000F20009000208DF8060000208DF8DB
:1002100007006946DFF8700500F06EFB07BD1CB5EE
:100220000121022000F02EFB02208DF804004FF483
:100230007070009000208DF8060000208DF80700F7
:10024000DFF844456946200000F056FB02220621F3
:10025000200000F0AFFB02220721200000F0AAFBE3
:1002600002220821200000F0A5FB02220921200023
:1002700000F0A0FB13BD2DE9F04782460C001500ED
:100280001E00DFF804750821380000F090FBDFF84D
:10029000F484DFF8F89419F80610490089B2404652
:1002A00000F085FB4FF47A70FFF76EFF04213800F1
:1002B00000F07DFB19F80510490089B2404600F0B6
:1002C00076FB4FF47A70FFF75FFF0221380000F0F1
:1002D0006EFB19F80410490089B2404600F067FB34
:1002E0004FF47A70FFF750FF0121380000F05FFBF8
:1002F00019F80A10490089B2404600F058FB4FF443
:100300007A70FFF741FFBDE8F08738B50500DFF8E8
:1003100080448021200000F0F1FB0028F7D0EDB2EE
:10032000290089B2200000F0E1FB31BD10B5DFF8F3
:1003300060442021200000F0E1FB0028F7D02000DD
:1003400000F0D8FBC0B210BD1FB504000121012090
:1003500000F0A6FA43F67F60ADF80400641E029434
:100360000020ADF8060001A95FF0804000F0F0FB2E
:1003700001215FF0804000F053FD012201215FF078
:10038000804000F02FFD01215FF0804000F017FC5D
:100390004FF4C06000F048FD1C208DF800000020E4
:1003A0008DF8010001208DF8020001208DF8030076
:1003B000684600F03EFD1FBD1FB50121042000F07E
:1003C0006FFAA820ADF8000040F26670019000209E
:1003D000ADF802000020ADF80800DFF8B843694628
:1003E000200000F0B5FB0121200000F0E8FB1FBD5C
:1003F00018B585B06020ADF800000120ADF802000E
:100400000020ADF80C0000200290DFF88843694618
:10041000200000F0E2FB6946200000F01CFC694669
:10042000200000F05CFC6946200000F09BFC06B058
:1004300010BD10B586B00121012000F023FA022082
:100440008DF8040000208DF8060001208DF80700CB
:100450000C200090CA4C6946200000F04DFA07229B
:100460000221200000F0A6FA07220321200000F05C
:10047000A1FA01215FF4003000F012FA5FF4E130DC
:1004800002900020ADF80C000020ADF80E00002016
:10049000ADF810000C20ADF81200BD4C02A92000F0
:1004A00000F0B2FA0121200000F012FB06B010BDEE
:1004B00018B58DB00121042000F0E4F9012001906D
:1004C00003208DF8080000208DF80B0001A9AD482D
:1004D00000F012FA4FF4C06000F0A6FC12208DF874
:1004E000000001208DF8010002208DF8020001209B
:1004F0008DF80300684600F09CFC01214FF48070E9
:1005000000F0DCF90020099000200B905FF44030EF
:100510000A9009A800F0EDFC0020039000208DF85F
:10052000100001208DF81100002005900020069099
:100530000020079001208DF82000974C03A920008F
:1005400000F0B2FC002301220A21200000F0EDFCA3
:10055000012240F20521200000F05CFD0121200075
:1005600000F0D6FC0EB010BDE0B501214FF4804084
:1005700000F0A4F90D21022000F07CFD4FF40050A2
:10058000019000208DF808000C208DF80900012052
:100590008DF80A0001A800F097FD4FF4C06000F04C
:1005A00043FC28208DF8000000208DF80100012078
:1005B0008DF8020001208DF80300684600F039FC38
:1005C00007BD38B5744D40F205242100280000F025
:1005D00032FD002808D02100280000F044FD28004A
:1005E00000F00DFD6D49088031BDF8B501215FF0C7
:1005F000804000F003FC00287BD0694C23780A205F
:1006000021780A2291FBF2F20A252178642691FBD7
:10061000F6F10A2693FBF0F700FB173392FBF5F097
:1006200005FB102291FBF6F006FB10110020FFF7EE
:1006300022FE20783D280DDA5A485B49096850F8B7
:1006400021105A4801600021594801600021594891
:10065000016021E020783D3814280DD20021534854
:10066000016050485049096850F82100504908601D
:100670000020504908600FE0207851280CDB002052
:100680004A49086000204A490860464846490968C6
:1006900050F821004749086021782F314648016011
:1006A000464C474D3D48018889B2090A2288A95421
:1006B0002188491C21800188208829542088401CD9
:1006C0002080208814280FD1A520FFF71EFE0026C9
:1006D00003E0A85DFFF719FE761C142EF9DB5A2003
:1006E000FFF713FE0020208001215FF0804000F022
:1006F00097FBF1BD80B54FF4005000F021FD0028BC
:100700000CD029480168491C01600168042901DBFB
:10071000002101604FF4005000F01CFD01BD10B538
:10072000FFF73CFDFFF750FDFFF779FDFFF744FEB3
:10073000FFF75EFEFFF718FF0A20FFF705FEFFF741
:1007400078FEFFF7B5FE144800F054FC144CFFF798
:10075000EDFD207020780028F8D0094C20212000E1
:1007600000F01EF94FF47A70FFF70EFD20212000F3
:1007700000F019F94FF47A70FFF706FDE6E7000084
:100780000000024000080240000402400000002077
:1007900000440040000800400020014044000020C8
:1007A000480000200C0000204000002034080040D9
:1007B000380800403C080040400800404600002047
:1007C0002C00002010B40021002100210221002172
:1007D0000221DFF80421116811F00C01002904D076
:1007E000042906D0082908D02DE0DFF8F4100160B4
:1007F0002CE0DFF8F010016028E0DFF8E030196845
:10080000C1F380511C6814F03F04002909D0DFF8BF
:10081000D410B1FBF4F41968C1F3881101FB04F1A1
:1008200008E0DFF8BC10B1FBF4F41968C1F38811DB
:1008300001FB04F11B68C3F301435B1C5B00B1FBCC
:10084000F3F1016002E0DFF898100160136813F023
:10085000F0031B09DFF89010CC5C0368E3404360B1
:10086000136813F4E0539B0ACC5C4368E340836055
:10087000126812F46042520B895C4268CA40C2603E
:1008800010BC7047C9B2002904D0184A1168084347
:10089000106004E0154A116831EA000010607047EA
:1008A000C9B2002904D0124A11680843106004E05C
:1008B0000F4A116831EA000010607047C9B2002980
:1008C00004D00C4A11680843106004E0094A11681A
:1008D00031EA0000106070470838024004380240D6
:1008E0000024F40040787D011C00002030380240D4
:1008F0004038024044380240F0B400220022002276
:10090000002349E0012515FA03F40A682240A242B7
:1009100041D1032402681E00F6B2760014FA06F6EE
:10092000B243026006680F791A00D2B252009740B3
:100930003E4306600A79012A02D00A79022A1AD1B6
:1009400082681E00F6B2760014FA06F6B2438260A0
:1009500086684F791A00D2B2520097403E438660B3
:1009600042689D4032EA0505456045688A799A40AB
:1009700092B215434560C5681A00D2B25200944045
:1009800035EA0404C460C468CD791A00D2B25200BA
:1009900095402C43C4605B1C102BB3D3F0BC704754
:1009A00089B28161704789B209048161704789B257
:1009B0004161704770B400230023D2B211F00703E5
:1009C000DBB29B009A400B009BB2DB1000EB830470
:1009D0000B009BB2DB1000EB83031D6A0F2611F0A6
:1009E0000703DBB29B009E40B54325620B009BB220
:1009F000DB1000EB83031B6A1A4389B2C91000EBBA
:100A00008100026270BC704738B584B004000D00EC
:100A10000020002000200020A8890028218A31F42D
:100A20004051E88801432182A18928480140A888D3
:100A300001432889014368890143A181A18A31F4D6
:100A40004071A8890143A1826846FFF7BBFE1D489B
:100A5000844202D01C48844201D1039900E00299EB
:100A6000A089000406D51920414328684000B1FB45
:100A7000F0F205E01920414328688000B1FBF0F254
:100A80006420B2FBF0F109010B001B097FF0630049
:100A900000FB0322A089000408D5D0003230642274
:100AA000B0FBF2F010F00700014307E01201323210
:100AB0006420B2FBF0F010F00F000143218105B07B
:100AC00030BD00000010014000140140F3E9FFFFB9
:100AD000C9B2002904D0818951F40051818104E018
:100AE00082894DF6FF710A4082817047C905C90DA0
:100AF000818070478088C005C00D704700220A00C1
:100B000092B2B2F5007F0088084201D0012000E0D7
:100B10000020C0B2704730B501688468421841684F
:100B200002EB5103C90703D54C4401E0491C08D12D
:100B30009A4218BF12F9011B01D10C3030BD12F8D6
:100B4000015B002904F8015BF0D4491EF7D5EFE7FB
:100B500010B4002204889C4B98420ED0A04A9042C8
:100B60000BD0B0F1804F08D0984A904205D0984AF7
:100B7000904202D0974A904205D14FF68F721440AE
:100B800022004C881443944A904208D0934A9042E1
:100B900005D04FF6FF42144022000C891443048014
:100BA0004A68C2620A880285984202D08C4A904202
:100BB00001D1897A01860121818210BC7047C9B2B6
:100BC000002904D0018851F00101018004E002886D
:100BD0004FF6FE710A400280704730B400220022B6
:100BE0000022038C4FF6FE7213400384038C84882A
:100BF000058B4FF68F7215404FF6FC7215400A8830
:100C000015434FF6FD7213408A8913434A881343F4
:100C10006D4A904202D0724A904215D14FF6F77257
:100C20001340CA8913434FF6FB7213401A008B8896
:100C300013434FF6FF6214404FF6FF5214400A8AE6
:100C4000144322004C8A14438480058389684163DD
:100C5000038430BC704730B4002200220022038C91
:100C60004FF6EF7213400384038C8588048B48F69B
:100C7000FF7214404FF6FF4214400A8854EA0224DF
:100C80004FF6DF7213408A8953EA02134A8853EA07
:100C900002134D4A904202D0514A904218D14FF669
:100CA0007F721340CA8953EA02131A004FF6BF73CA
:100CB00013408A8853EA02134FF6FF3215404FF271
:100CC000FF7215400A8A55EA82054A8A55EA82056A
:100CD0008580048389688163038430BC704730B4A5
:100CE000002200220022038C4FF6FF62134003848F
:100CF000038C8588848B4FF68F7214404FF6FC72FC
:100D000014400A8814434FF6FF5213408A8953EA6D
:100D100002234A8853EA02232B4A904202D0304AE7
:100D2000904218D14FF2FF721340CA8953EA02234E
:100D30001A004FF6FF3313408A8853EA02234EF617
:100D4000FF7215404DF6FF7215400A8A55EA0215EA
:100D50004A8A55EA0215858084838968C1630384C1
:100D600030BC704730B4002200220022038C4EF6C3
:100D7000FF7213400384038C8588848B48F6FF72CE
:100D800014404FF6FF4214400A8854EA02244DF6FC
:100D9000FF7213408A8953EA02334A8853EA0233C6
:100DA000094A904202D00E4A904205D14BF6FF729A
:100DB00015400A8A55EA8215858084838968016412
:100DC000038430BC70470000000001400004004074
:100DD00000080040000C00400010004000140040DB
:100DE00000040140D2B2002A03D0828911438181DC
:100DF00003E0828932EA01018181704700220022EA
:100E00000022028A0A408089014092B2002A04D05E
:100E100089B2002901D0012000E00020C0B2704753
:100E200089B2C943018270471A4908431A490860C8
:100E30007047002100210F22C17800291ED01649D9
:100E4000096811F4E061D1F5E061090AD1F1040308
:100E5000D2B20A414178994083781A40114309017E
:100E60000E4B027899540121027812F01F02914032
:100E70000B4A0078401142F8201009E00121027865
:100E800012F01F029140074A0078401142F82010EA
:100E9000704700000000FA050CED00E000E400E0FF
:100EA00000E100E080E100E010B40022002344688B
:100EB000544A14400A7954EA02240A6814434460EC
:100EC0008468514A14400A691443CA6814438A6802
:100ED00014434A7954EA42048460C26A32F47002CC
:100EE000097D491E0B43DBB252EA0352C26210BCB9
:100EF00070470021454A136845490B4001680B4380
:100F000041680B4381680B43C0680343136070471B
:100F1000C9B2002904D0816851F00101816003E069
:100F200081684908490081607047F0B400240024BA
:100F30000C00E4B20A2C12DBC5680726B1F10A04E2
:100F4000032714FB07F4A640B543DBB2B1F10A0650
:100F5000032416FB04F4A3402B43C3600DE0056992
:100F60000726032411FB04F4A640B543DBB2032497
:100F700011FB04F4A3402B4303611300DBB2072BE6
:100F800010DA446B1F25561E052316FB03F39D4004
:100F9000AC43C9B2521E052312FB03F29140214318
:100FA000416325E01300DBB20D2B10DA046B1F2523
:100FB000D61F052316FB03F39D40AC43C9B2D31FD4
:100FC000052213FB02F291402143016310E0C46A41
:100FD0001F25B2F10D06052316FB03F39D40AC431C
:100FE000C9B20D3A052312FB03F291402143C162BD
:100FF000F0BC7047816851F0804181607047C06CDF
:1010000080B27047FFFEFFFCFDF7FFC004230140E4
:10101000E030FCFF0023C9B2012313FA01F1D2B280
:10102000002A03D042681143416003E0426832EA7B
:1010300001014160704710B40022002200220A0022
:1010400092B2120A92B24468012313FA01F12140CC
:101050000068104203D0002901D0012000E00020E8
:10106000C0B210BC7047002289B2090AC9B2C94394
:101070000160704710B400220F2411F00302D2B2B5
:10108000920094400F4B0A00D2B2921053F82220E3
:1010900032EA04040A00D2B2921043F822400A0055
:1010A000D2B2921053F82240C0B211F00302D2B271
:1010B000920090402043C9B2891043F8210010BC2F
:1010C000704700000838014030B40021234A130063
:1010D000817900292CD0214D2C6801688C432C602B
:1010E0001F4D2C6801688C432C6001795C182368C3
:1010F00001680B4323601B4B1C6801688C431C6018
:10110000194C256801688D4325604179102908D163
:101110001A6801680A431A60216800680143216067
:101120000CE041795218116800680143116005E034
:1011300001795A18116800688143116030BC70470A
:1011400000210A490968014201D0012000E0002085
:10115000C0B270470549086070470000003C01407C
:10116000043C0140083C01400C3C0140143C01405F
:101170000F49086850F4700008600E49086850F084
:101180000100086000220C4802600A680B48024017
:101190000A600B4A0B480260086830F4802008603F
:1011A0000021094801605FF0006108480160704754
:1011B00088ED00E00038024008380240FFFFF6FEEC
:1011C00010300024043802400C38024008ED00E0E2
:1011D00010B5034A7A440832024C7C44A41D03E053
:1011E000500000005C00000004E01168101D114474
:1011F00088470246A242F8D110BD7047FEE7FEE7DD
:10120000FEE7FEE770477047704770474EF688511B
:10121000CEF20001086840F470000860BFF34F8F01
:10122000BFF36F8F4FF00170E1EE100A70470000BE
:10123000E7F8FFFFBC01000058000000000000209C
:1012400000F00DF8002801D0FFF7C2FFAFF30080D7
:101250000020AFF30080FFF762FA00F002F80120EF
:10126000704700F001B800000746384600F002F869
:10127000FBE7000080B5AFF30080024A11001820A0
:10128000ABBEFBE7260002000548014603B46846F2
:1012900080F30988AFF30080FFF7B8FFFFF7D0FFB6
:1012A000A5EDF5FE0148804701480047711100088F
:1012B00089120008FFF7FEBFFFF7FEBFFFF7FEBF72
:1012C000FFF7FEBFFFF7FEBFFFF7FEBFFFF7FEBF52
:1012D000FFF7FEBFFFF7FEBFFFF7FEBFFFF7FEBF42
:1012E000FFF7FEBFFFF7FEBFFFF7FEBFFFF7FEBF32
:1012F000FFF7FEBFFFF7FEBFFFF7FEBFFFF7FEBF22
:10130000FFF7FEBFFFF7FEBFFFF7FEBFFFF7FEBF11
:10131000FFF7FEBFFFF7FEBFFFF7FEBFFFF7FEBF01
:10132000FFF7FEBFFFF7FEBFFFF7FEBFFFF7FEBFF1
:10133000FFF7FEBFFFF7FEBFFFF7FEBFFFF7FEBFE1
:10134000FFF7FEBFFFF7FEBFFFF7FEBFFFF7FEBFD1
:10135000FFF7FEBFFFF7FEBFFFF7FEBFFFF7FEBFC1
:10136000FFF7FEBFFFF7FEBFFFF7FEBFFFF7FEBFB1
:10137000FFF7FEBFFFF7FEBFFFF7FEBFFFF7FEBFA1
:10138000FFF7FEBFFFF7FEBFFFF7FEBFFFF7FEBF91
:10139000FFF7FEBFFFF7FEBFFFF7FEBFFFF7FEBF81
:1013A000FFF7FEBFFFF7FEBFFFF7FEBFFFF7FEBF71
:1013B000FFF7FEBFFFF7FEBFFFF7FEBFFFF7FEBF61
:1013C000FFF7FEBFFFF7FEBFFFF7FEBFFFF7FEBF51
:1013D000FFF7FEBFFFF7FEBFFFF7FEBFFFF7FEBF41
:1013E000FFF7FEBFFFF7FEBFFFF7FEBFFFF7FEBF31
:1013F00019C0F9A4B0999282D8809000002C010005
:1014000000F4010000E8030000D007FA000B01021D
:0C14100003040102030406070809E300BE
:040000050800128954
:00000001FF
